:020000040800F2
:1000000000620120DD0300089F550008653E0008DE
:100010009D550008912D0008F979000800000000A6
:100020000000000000000000000000001D030008A8
:100030008F3400080000000079030008416F0008B9
:10004000F7030008F7030008F7030008F7030008A8
:10005000F7030008F7030008F7030008F703000898
:10006000F7030008F7030008F7030008F703000888
:10007000F7030008F7030008F7030008F703000878
:10008000F7030008B5310008F7030008F70300087C
:10009000F7030008F7030008F7030008F703000858
:1000A000F7030008F7030008F7030008F703000848
:1000B000F7030008F7030008F7030008F703000838
:1000C000F7030008F7030008F7030008F703000828
:1000D000F7030008C5730008F70300082974000837
:1000E000F7030008F7030008F7030008F703000808
:1000F000F7030008F7030008F7030008F7030008F8
:10010000F703000845590008F7030008F703000843
:10011000F7030008F7030008F703000881700008E0
:10012000F7030008F7030008F7030008F7030008C7
:10013000F7030008F7030008F7030008F7030008B7
:10014000F7030008F7030008F7030008F7030008A7
:10015000F7030008F7030008F70300089574000888
:10016000F7030008F7030008F7030008F703000887
:10017000F7030008F7030008F7030008F703000877
:10018000F7030008F703000800F002F800F0B2F8E7
:100190000AA090E8000C82448344AAF10107DA45E2
:1001A00001D100F0A7F8AFF2090EBAE80F0013F082
:1001B000010F18BFFB1A43F001031847EC8A070030
:1001C0000C8B07000A444FF0000C10F8013B13F0B1
:1001D000070408BF10F8014B1D1108BF10F8015BA0
:1001E000641E05D010F8016B641E01F8016BF9D193
:1001F00013F0080F1EBF10F8014BAD1C0C1B09D1EA
:100200006D1E58BF01F801CBFAD505E014F8016B5B
:1002100001F8016B6D1EF9D59142D6D370470000ED
:100220000023002400250026103A28BF78C1FBD8FF
:10023000520728BF30C148BF0B6070476E2901F0DC
:100240002281702900F0F98566290EF0C0846529A5
:100250000EF0BD8467290EF0BA8461290EF0B984CE
:1002600003681B0A28BF41F08001692900F06A85F4
:10027000642900F06785752900F064856F2901F015
:100280001A82782900F0C585E92901F0B581E429B1
:1002900001F0B281F52901F0AF81EF2901F0178259
:1002A000F82900F0C4850368DB0928BF41F080010C
:1002B000632901F02481732901F02981E32901F0E8
:1002C0005D86F32901F06286002070471FB50EF0AD
:1002D00079FC01F0B1FE0400002000210EF05CFC6E
:1002E000401C6060002000210EF040FCE0601FBD5B
:1002F00010B510BD01F072FE1146FFF7E7FF09F0DF
:1003000063FB01F04FFF03B4FFF7F2FF03BC07F0FC
:100310005EFC000072B6704762B670472C4B1968DD
:100320000868B0E8F04F80F30988BFF36F8F4FF093
:10033000000080F311887047000000000848006842
:10034000006880F308884FF0000080F3148862B6DC
:1003500061B6BFF34F8FBFF36F8F00DF00BF00BFE9
:1003600008ED00E0DFF80C00016841F47001016065
:10037000704700BF88ED00E0EFF30980BFF36F8F97
:10038000134B1A681EF0100F08BF20ED108A20E9E9
:10039000F04F106009B44FF0500080F31188BFF3A4
:1003A0004F8FBFF36F8F0CF049F84FF0000080F3D0
:1003B000118809BC19680868B0E8F04F1EF0100FEA
:1003C00008BFB0EC108A80F30988BFF36F8F7047C5
:1003D000E4010020EFF305807047000009488047E2
:1003E00009480047FEE7FEE7FEE7FEE7FEE7FEE717
:1003F000FEE7FEE7FEE7FEE704480549034A054B32
:10040000704700006D6F000889010008005E012040
:1004100000620120005E012081FB00207047014640
:100420004FF0000081EAE170A0EBE170704700003E
:100430002DE9F04F82B001904FF000744FF000783A
:100440004FF000054FF0000952F804CB52F804EBCE
:100450000868CB6DC0FB0C45D1F88000CEF1000ED2
:10046000C3FB0E45D1F8DC30C0FB0C89C3FB0E8901
:1004700052F804CB52F804EB48688B6DC0FB0C4576
:10048000D1F88400CEF1000EC3FB0E45D1F8D83070
:10049000C0FB0C89C3FB0E8952F804CB52F804EB65
:1004A00088684B6DC0FB0C45D1F88800CEF1000E7A
:1004B000C3FB0E45D1F8D430C0FB0C89C3FB0E89B9
:1004C00052F804CB52F804EBC8680B6DC0FB0C4526
:1004D000D1F88C00CEF1000EC3FB0E45D1F8D03020
:1004E000C0FB0C89C3FB0E8952F804CB52F804EB15
:1004F0000869CB6CC0FB0C45D1F89000CEF1000E22
:10050000C3FB0E45D1F8CC30C0FB0C89C3FB0E8970
:1005100052F804CB52F804EB48698B6CC0FB0C45D5
:10052000D1F89400CEF1000EC3FB0E45D1F8C830CF
:10053000C0FB0C89C3FB0E8952F804CB52F804EBC4
:1005400088694B6CC0FB0C45D1F89800CEF1000EC9
:10055000C3FB0E45D1F8C430C0FB0C89C3FB0E8928
:1005600052F804CB52F804EBC8690B6CC0FB0C4585
:10057000D1F89C00CEF1000EC3FB0E45D1F8C0307F
:10058000C0FB0C89C3FB0E8901984FF4FE4E4EF060
:10059000FF0E4FEA946444EA85144FEAE47CBCEB16
:1005A000E43F18BF8CEA0E044FEA986848EA8918BD
:1005B0004FEAE87CBCEBE83F18BF8CEA0E080480E9
:1005C000A0F8028002F5707201F580514FF00074BE
:1005D0004FF000784FF000054FF0000952F804CBBF
:1005E0000868D1F88030C0FB0C45C3FB0C8952F879
:1005F00004CB4868D1F88430C0FB0C45C3FB0C89A0
:1006000052F804CB8868D1F88830C0FB0C45C3FB96
:100610000C8952F804CBC868D1F88C30C0FB0C456B
:10062000C3FB0C8952F804CB0869D1F89030C0FBA9
:100630000C45C3FB0C8952F804CB4869D1F89430BF
:10064000C0FB0C45C3FB0C8952F804CB8869D1F878
:100650009830C0FB0C45C3FB0C8952F804CBC86929
:10066000D1F89C30C0FB0C45C3FB0C8901984FF4BA
:10067000FE4E4EF0FF0E4FEA946444EA85144FEAB2
:10068000E47CBCEBE43F18BF8CEA0E044FEA9868A8
:1006900048EA89184FEAE87CBCEBE83F18BF8CEACF
:1006A0000E08A0F84040A0F84280A2F57872A1F5AB
:1006B00070614FF00F0C00F10400CDF800C0019004
:1006C0004FF000744FF000784FF000764FF0007A52
:1006D0004FF000054FF000094FF000074FF0000BFE
:1006E00052F804CB52F804EB0868CB6DC0FB0C4504
:1006F000C0FB0E67CEF1000EC3FB0C67C3FB0E45BB
:10070000D1F8DC30D1F88000C3FB0E89C3FB0CAB01
:10071000CEF1000EC0FB0C89C0FB0EAB52F804CB2F
:1007200052F804EB48688B6DC0FB0C45C0FB0E67AC
:10073000CEF1000EC3FB0C67C3FB0E45D1F8D830D9
:10074000D1F88400C3FB0E89C3FB0CABCEF1000EC5
:10075000C0FB0C89C0FB0EAB52F804CB52F804EB83
:1007600088684B6DC0FB0C45C0FB0E67CEF1000ED8
:10077000C3FB0C67C3FB0E45D1F8D430D1F8880019
:10078000C3FB0E89C3FB0CABCEF1000EC0FB0C8982
:10079000C0FB0EAB52F804CB52F804EBC8680B6DEB
:1007A000C0FB0C45C0FB0E67CEF1000EC3FB0C670F
:1007B000C3FB0E45D1F8D030D1F88C00C3FB0E89B5
:1007C000C3FB0CABCEF1000EC0FB0C89C0FB0EAB23
:1007D00052F804CB52F804EB0869CB6CC0FB0C4513
:1007E000C0FB0E67CEF1000EC3FB0C67C3FB0E45CA
:1007F000D1F8CC30D1F89000C3FB0E89C3FB0CAB11
:10080000CEF1000EC0FB0C89C0FB0EAB52F804CB3E
:1008100052F804EB48698B6CC0FB0C45C0FB0E67BB
:10082000CEF1000EC3FB0C67C3FB0E45D1F8C830F8
:10083000D1F89400C3FB0E89C3FB0CABCEF1000EC4
:10084000C0FB0C89C0FB0EAB52F804CB52F804EB92
:1008500088694B6CC0FB0C45C0FB0E67CEF1000EE7
:10086000C3FB0C67C3FB0E45D1F8C430D1F8980028
:10087000C3FB0E89C3FB0CABCEF1000EC0FB0C8991
:10088000C0FB0EAB52F804CB52F804EBC8690B6CFA
:10089000C0FB0C45C0FB0E67CEF1000EC3FB0C671E
:1008A000C3FB0E45D1F8C030D1F89C00C3FB0E89C4
:1008B000C3FB0CABCEF1000EC0FB0C89C0FB0EAB32
:1008C00001F5807101984FF4FE4E4EF0FF0E4FEA95
:1008D000946444EA85144FEAE47CBCEBE43F18BF1F
:1008E0008CEA0E044FEA986848EA89184FEAE87CD7
:1008F000BCEBE83F18BF8CEA0E084FEA966646EA62
:1009000087164FEAE67CBCEBE63F18BF8CEA0E0682
:100910004FEA9A6A4AEA8B1A4FEAEA7CBCEBEA3F52
:1009200018BF8CEA0E0ADDF800C000EBCC0E2EF8E2
:10093000026B2EF802AB20F8024B20F8028BBCF1C0
:10094000010C7FF4BAAE02B0BDE8F08F2DE9F04F94
:1009500082B001904FF000744FF0000552F804CBC4
:1009600052F804EB0868CB6DCEF1000EC0FB0C45CD
:10097000C3FB0E4552F804CB52F804EB48688B6D6C
:10098000CEF1000EC0FB0C45C3FB0E4552F804CB64
:1009900052F804EB88684B6DCEF1000EC0FB0C459D
:1009A000C3FB0E4552F804CB52F804EBC8680B6D3C
:1009B000CEF1000EC0FB0C45C3FB0E4552F804CB34
:1009C00052F804EB0869CB6CCEF1000EC0FB0C456D
:1009D000C3FB0E4552F804CB52F804EB48698B6C0C
:1009E000CEF1000EC0FB0C45C3FB0E4552F804CB04
:1009F00052F804EB88694B6CCEF1000EC0FB0C453D
:100A0000C3FB0E4552F804CB52F804EBC8690B6CDB
:100A1000CEF1000EC0FB0C45C3FB0E4501984FF410
:100A2000FE4E4EF0FF0E4FEA946444EA85144FEAFE
:100A3000E47CBCEBE43F18BF8CEA0E04048002F5B2
:100A4000707201F580514FF000744FF0000552F8BC
:100A500004CB0868C0FB0C4552F804CB4868C0FBC7
:100A60000C4552F804CB8868C0FB0C4552F804CB07
:100A7000C868C0FB0C4552F804CB0869C0FB0C45A4
:100A800052F804CB4869C0FB0C4552F804CB886986
:100A9000C0FB0C4552F804CBC869C0FB0C4501985B
:100AA0004FF4FE4E4EF0FF0E4FEA946444EA851474
:100AB0004FEAE47CBCEBE43F18BF8CEA0E040484EC
:100AC000A2F57872A1F570614FF00F0C00F10200F1
:100AD000CDF800C001904FF000744FF000764FF059
:100AE00000054FF0000752F804CB52F804EB0868F9
:100AF000CB6DC0FB0C45C0FB0E67CEF1000EC3FBF7
:100B00000E45C3FB0C6752F804CB52F804EB48685F
:100B10008B6DC0FB0C45C0FB0E67CEF1000EC3FB16
:100B20000E45C3FB0C6752F804CB52F804EB8868FF
:100B30004B6DC0FB0C45C0FB0E67CEF1000EC3FB36
:100B40000E45C3FB0C6752F804CB52F804EBC8689F
:100B50000B6DC0FB0C45C0FB0E67CEF1000EC3FB56
:100B60000E45C3FB0C6752F804CB52F804EB08693E
:100B7000CB6CC0FB0C45C0FB0E67CEF1000EC3FB77
:100B80000E45C3FB0C6752F804CB52F804EB4869DE
:100B90008B6CC0FB0C45C0FB0E67CEF1000EC3FB97
:100BA0000E45C3FB0C6752F804CB52F804EB88697E
:100BB0004B6CC0FB0C45C0FB0E67CEF1000EC3FBB7
:100BC0000E45C3FB0C6752F804CB52F804EBC8691E
:100BD0000B6CC0FB0C45C0FB0E67CEF1000EC3FBD7
:100BE0000E45C3FB0C6701F5807101984FF4FE4E72
:100BF0004EF0FF0E4FEA946444EA85144FEAE47C19
:100C0000BCEBE43F18BF8CEA0E044FEA966646EA56
:100C100087164FEAE67CBCEBE63F18BF8CEA0E066F
:100C2000DDF800C000EB8C0E2EF8026B20F8024BB2
:100C3000BCF1010C7FF44CAF02B0BDE8F08F7047FF
:100C400010B54C1084EA530404D54042C1F10001B0
:100C500038BF491E1B4204D55242C3F1000338BFBE
:100C60005B1E00F007FB14F0804F04D04042C1F13E
:100C7000000138BF491E14F0004F04D05242C3F1A6
:100C8000000338BF5B1E10BD1CB50C46064B7B44F1
:100C900069460090204600F010FC0446002069469A
:100CA00000F01EFC20461CBD4F0800000FB4044994
:100CB00010B503AA029800F02FFC10BC5DF814FBDD
:100CC000780000200FB41CB5084B06AA7B44694687
:100CD0000090059800F0F1FB04460020694600F002
:100CE000FFFB20461CBC5DF814FB0000110800004F
:100CF00070B50C460546012A05D02878800600D537
:100D0000EA69002302E0012305E05B1C934202D262
:100D1000E05C0028F9D1A869E618C01AA861286A21
:100D200018442862284600F01CFB04E0D5E90121A4
:100D300014F8010B9047B442F8D3284600F027FB83
:100D400070BD00002DE9F0410646002410687529A9
:100D5000314616A510D000F02BFB002802DA4042E5
:100D600013A507E031688A0701D512A502E04907FB
:100D700004D511A5012401E000F023FB00210A2283
:100D800006F1240709E0B0FBF2FCB0FBF2F302FB32
:100D90001C00303078541846491C0028F3D12346F3
:100DA0002A463046BDE8F04100F014BB00000000C8
:100DB0002D0000002B00000020000000F0B40D46C4
:100DC0000188090502D5214C7C4402E01F4C7C447B
:100DD0000E34002100F1240608E002F00F0712098A
:100DE000E75D42EA03721B097754491C52EA030784
:100DF000F3D102780023120704D5702D06D009B173
:100E0000022311342246F0BC00F0E4BA012310346E
:100E1000F8E770B504460D462146106800F0D1FA97
:100E2000024629462046BDE870400023C6E7D21D91
:100E300022F00703D3E90023C0E70368126843F0F8
:100E4000200303600823C3610023B7E79C7A0700EF
:100E50002DE9F05F894604464FF0000ADFF874B1CF
:100E6000FB44C0F820A02046E1688847002874D0E1
:100E7000252806D0D4E901219047206A401C206231
:100E8000F1E700265F462046E168884720280546AE
:100E900007DB312D05D2781910F8200C08B1064374
:100EA000F1E7B00701D526F00406C4F81CA000271E
:100EB000C4F818A02A2D09D0284606F081FE38B3C0
:100EC00004EB8708303DC8F8185019E059F8041BA6
:100ED000204604EB87029161E1688847012F0546AF
:100EE00018D1E069002820DA26F020061DE0D8F8A5
:100EF000180000EB800005EB40003038C8F81800FF
:100F00002046E1688847054606F05AFE0028EED1E3
:100F1000012F0AD02E2D08D12046E16888477F1C7A
:100F20000546022F46F02006C4DBA069002803DA3C
:100F3000404246F00106A061F00701D026F01006FD
:100F40006C2D0BD0682D09D04C2D39D06A2D35D0A1
:100F5000742D35D07A2D33D016E038E0E1682F4675
:100F600020468847B842054609D16C2F26D04FF459
:100F70008060E168064320468847054604E06C2F00
:100F80001AD04FF4807006430DB3A5F14100192823
:100F900002D8203546F400664A4629462046266097
:100FA0004E46FFF74BF980B101280BD0F61D26F015
:100FB000070000F1080956E74020E4E78020D8E761
:100FC0000020D6E706F104094DE7284652E7206ADB
:100FD000BDE8F09F2C7A070030B505460B462A463F
:100FE00013F8014B12F8010B08B1A042F8D01CB164
:100FF000002802D06D1CF1E7284630BD10B5431C17
:1010000002E010F8011B71B18107FAD14FF00132F3
:1010100002C88C1A8C4314EAC211F9D0C01A0A060D
:1010200003D0C01E10BDC01A10BD0A0401D0801E1E
:1010300010BD0902FCD0401E10BD032A40F23080D2
:1010400010F0030C00F0158011F8013BBCF1020F09
:10105000624498BF11F801CB00F8013B38BF11F88A
:10106000013BA2F1040298BF00F801CB38BF00F8A1
:10107000013B11F0030300F03583083AC0F008800B
:1010800051F8043B083A51F804CBA0E80810F5E702
:10109000121D5CBF51F8043B40F8043BAFF30080E5
:1010A000D20724BF11F8013B11F801CB48BF11F85A
:1010B000012B24BF00F8013B00F801CB48BF00F82A
:1010C000012B7047431A28BF9A427FF6B6AF032A16
:1010D0001044114440F2268010F0030F1EBF11F897
:1010E000013D521E00F8013D10F0030F7FF4F6AFF2
:1010F00011F0030300F03B83083AC0F00B8051F875
:10110000043D083A51F804CD40F8043D40F804CDC0
:10111000FFF7F3BF121D5CBF51F8043D40F8043DDA
:10112000AFF30080D20724BF11F8013D11F801CDC3
:1011300048BF11F8012C24BF00F8013D00F801CD93
:1011400048BF00F8012C704702F0FF0343EA032276
:1011500042EA024200F002B84FF000020429C0F057
:10116000128010F0030C00F01B80CCF1040CBCF1D9
:10117000020F18BF00F8012BA8BF20F8022BA1EB2B
:101180000C0100F00DB85FEAC17C24BF00F8012B10
:1011900000F8012B48BF00F8012B70474FF0000208
:1011A00000B5134694469646203922BFA0E80C505D
:1011B000A0E80C50B1F12001BFF4F7AF090728BF38
:1011C000A0E80C5048BF0CC05DF804EB890028BFB4
:1011D00040F8042B08BF704748BF20F8022B11F0DD
:1011E000804F18BF00F8012B704700004FF0013C02
:1011F00050F8042B51F8043B9A4221D1A2EB0C0386
:10120000934313EACC1317D150F8042B51F8043B45
:101210009A4215D1A2EB0C03934313EACC130BD1E2
:1012200050F8042B51F8043B9A4209D1A2EB0C036D
:10123000934313EACC13DBD04FF00000704700BF9C
:10124000D01A01BAB1FA81F101F0180122FA01F0C5
:10125000CB40C1F12001DBB2C0B2C01A2CFA01F3BD
:10126000D11A914311EAC311E6D170477047704714
:101270007047704753EA020C00F069802DE9F04B8B
:101280004FF00006002B1FBFB3FA83F503FA05F4F5
:1012900024FA05F65E4012BF1643B2FA82F502FA4E
:1012A00005F4C5F120051EBF22FA05FC44EA0C0432
:1012B000203556EA044C4FEA144418BF641C4FF022
:1012C00000084FF00009904271EB030C39D300295C
:1012D00019BFB1FA81F701FA07F6B0FA80F700FA00
:1012E00007F6C7F120071EBF20FA07FC46EA0C06E6
:1012F0002037B6FBF4FCA7EB0507103F07F01F0BE8
:10130000CBF120060CFA0BFB2CFA06F644BFB346D1
:101310000026202FA4BF5E464FF0000B5BEA060CB0
:1013200008BF4FF0010B19EB0B09ABFB027C48EB3C
:101330000608C01B06FB02CC0BFB03CC71EB0C01B7
:10134000C1E70B46024641464846BDE8F08B13B55F
:101350004FF000004FF00001AFF30080BDE81C40EB
:10136000704770B5044685690068C10601D530260E
:1013700000E02026C00707D070BDD4E90121304627
:101380009047206A401C20626D1EF6D570BD70B576
:10139000044685690078C00707D170BDD4E90121F2
:1013A00020209047206A401C20626D1EF6D570BD3B
:1013B00009684A0501D540B27047C905FCD500B29D
:1013C000704709684A0501D5C0B27047C905FCD508
:1013D00080B270472DE9F0470D4699469246044683
:1013E00000F124080168880604D5E06921F01001A5
:1013F000216000E00120A84201DD471B00E000273A
:10140000A1697A1902EB0900081AA0612078C006C8
:1014100002D42046FFF7A5FF002608E0D4E9012109
:101420001AF806009047206A401C761C20624E4540
:10143000F4DB2078C0060AD52046FFF792FF06E0CD
:10144000D4E9012130209047206A401C2062381ED8
:10145000A7F10107F4DC07E0D4E9012118F8050041
:101460009047206A401C2062281EA5F10105F3DC8C
:101470002046FFF78CFF2078000602D50220BDE849
:10148000F0870120FBE711680268006A530501D567
:1014900008700AE0D30501D5088006E0130603D5DD
:1014A000C217C1E9000200E0086001207047000097
:1014B00001694A1C02610878704700B58FB0CDE918
:1014C00001310021059105497944CDE90310114608
:1014D0006846FFF7BDFC0FB000BD0000E5FFFFFF51
:1014E0000A6802F8010B0A60704710B5436913B12E
:1014F000AFF3008001E0FFF7FBFB012010BD127885
:1015000000F124010A7000224A700122EDE71168FF
:101510004FF0FF32E9E70000074B70B50D467B4402
:10152000FFF7CBFF0446284600F034FD10B14FF022
:10153000FF3070BD204670BD7B7A00002DE9FF5F53
:1015400015468A460446DFF8AC80F8440027D8E9FF
:1015500000103E46CDE9001010E03AF816106A4639
:1015600002A800F01BFD411C07D02178890603D595
:10157000E269391891420DD80744761C207880061C
:1015800002D5E069B84205DDAE42E6DB3AF8160066
:101590000028E2D1A069C01BA0612046FFF7E1FE50
:1015A000D8E90010CDE90010002017E03AF8181033
:1015B0006A4602A800F0F2FCB0F1FF3F81460BD072
:1015C00000250DF1080B05E0D4E901211BF8050009
:1015D00090476D1C4D45F7D308F10100B04280469D
:1015E000E4DB206A384420622046FFF7D0FEBDE8E5
:1015F000FF9F0000567307002DE9F0418046D21D81
:1016000022F007020025D2E90002F52915A614D020
:10161000011E72F1000106DA0023D0EB030063EB38
:10162000020211A608E0D8F800108B0701D50FA61A
:1016300002E0490701D50EA601251146002408F154
:10164000240704E000F0BDF830323A55641C50EA3B
:101650000102F7D12B46324621464046BDE8F04113
:10166000FFF7B8BE000000002D0000002B000000B6
:101670002000000030B4002100F1240408E002F052
:101680000705D208303542EA4372DB086554491C2D
:1016900052EA0305F3D10468002310A2250707D5F9
:1016A000A40600D421B1C46901230DA2641EC46143
:1016B00030BCFFF78FBE10B5044621461068FFF717
:1016C00080FE02462046BDE810400023D2E7D21D2E
:1016D00022F00701D1E90023CCE700000000000060
:1016E0003000000010B5203AC0F00B80B1E818506F
:1016F000203AA0E81850B1E81850A0E81850BFF4FC
:10170000F5AF5FEA027C24BFB1E81850A0E818509A
:1017100044BF18C918C0BDE810405FEA827C24BFEE
:1017200051F8043B40F8043B08BF7047D20728BF7C
:1017300031F8023B48BF11F8012B28BF20F8023BCB
:1017400048BF00F8012B7047431A28BF9A427FF622
:10175000C9AF104410F0030F11441EBF11F8013D32
:10176000521E00F8013D10F0030F7FF4F6AF103A5F
:10177000C0F00A8010B531E91850103A20E918502D
:10178000BFF4F9AFBDE81040530724BF31E908109A
:1017900020E9081044BF51F8043D40F8043D12F020
:1017A000030F08BF7047D20728BF31F8023D48BF7A
:1017B00011F8012C28BF20F8023D48BF00F8012C89
:1017C000704730B5B0F10A024FEA900E71F1000394
:1017D0004EEA817EB0EB0E0061EB91014FEA101EE4
:1017E0004EEA017E10EB0E0041EB11114FEA102E74
:1017F0004EEA016E10EB0E0041EB11214FEA104E44
:101800004EEA014E10EB0E0041EB1141401841F140
:1018100000014FEAD00040EA41704FEAD10110EBDD
:1018200080054FEA810444EA907444EB01046D1989
:1018300044EB0404521BA3414FF0000348BF0A329B
:1018400000D530BD401C41F1000130BD70472DE98D
:10185000FF4F0C461E464FF0FF378BB0D2E9000118
:10186000DDF860800A908A46C1F30A5505B93D4605
:10187000002108464FF00000BAF1000F00F44000CC
:1018800005DA00EB80004FF4400101EA50004FEA16
:101890009059B9F1010F00DDB9460A9850EA4A00A3
:1018A0000ED044F61050A5F2FF3545432F14B8F181
:1018B000000F1ED07542291E1EDDC9F100021CE07A
:1018C000B8F1010F4FF0000001D0302103E0F243E6
:1018D00005E02154401CB042FBDB304600220021D1
:1018E00021540B99C1F80880C1E900200FB0BDE870
:1018F000F08FBD1B6D1CDEE74A4600DA694206A880
:1019000000F0DEFB06AB93E8070003AB83E80700BB
:1019100050460A9900F054FC8DE80700A0F50050ED
:101920001F3800900398002D0ADD42F21F014A463D
:101930000844002303A90390684600F0BDFE09E0B7
:10194000A0F500504A461F38002303A903906846BB
:1019500000F0C7FE8DE807000004000C03D04FF034
:10196000FF30410800E01046B8F1000F03D000221C
:10197000009215461EE0751E05D4FFF722FF303297
:1019800062556D1EF9D5B3460122084302D00022EC
:101990007F1C04E02078302801D100227F1E002A1D
:1019A000099784D01DE0112D07DAFFF70AFF3032C6
:1019B00062556D1C50EA0102F5D1084302D000982F
:1019C000C8B10EE00021681E05E0235C625C635430
:1019D0002254401E491C8142F7DBAB46A81B401E27
:1019E0000990002004F80B000B98099AC0F80880B1
:1019F000C0E9002B7AE711264FF0000857E72DE9E0
:101A0000F04F88460446D21D22F0070191B0D1E97B
:101A10000001CDE90A0106F0BBF802460B98C00FA1
:101A200001D02D2007E02068810701D52B2002E09E
:101A3000202101EAC000032A099001D0072A05DB12
:101A400003464146204600F0FBFA0BE12078800671
:101A500001D5E06900E00620B8F1650F814606D0A7
:101A6000B8F1660F18D0B8F1670F70D131E00020DF
:101A7000B9F1110F009001DB112301E009F101031D
:101A80000AAA01A90CA8FFF7E2FEDDE90C70002606
:101A900009F10105834647E001204B4600904FF0D5
:101AA00000470AAA01A90CA8FFF7D1FEDDE90DB095
:101AB0000C995D46002610B909F101000D18B9EB2B
:101AC000050003D4C0F1FF3609F10105A5EB0900BB
:101AD0002BE0B9F1010F01DA4FF001090020B9F153
:101AE000110F0090484601DD112300E003460AAAC9
:101AF00001A90CA8FFF7ABFEDDE90C704D460026EE
:101B00008346207800070AD4AB4500DA5D4601A879
:101B1000012D04DD411911F8011C302907D04F4572
:101B200002DA17F1040F04DA012082460FE06D1E7D
:101B3000EEE7002F02DCED1B3E4403E0781CA842D8
:101B400000DD7D1CB81B00F1010A4FF00047207832
:101B5000000703D4AA4501DB4FF0FF3A0021B7F19B
:101B6000004F0DF143088DF8431024D002202B23A1
:101B7000002F01DA7F422D230A21021EA0F101006D
:101B800000DC5FB197FBF1FC97FBF1F201FB1C7CE1
:101B900017460CF1300C08F801CDEEE7A8F1010072
:101BA00003702188090501D5452100E06521A0F1D8
:101BB000010800F8011C09980FA9A1EB0807FF1DF7
:101BC00000B10120411901EBEA70A1693844081AFB
:101BD000401EA0612078C00602D42046FFF7C1FB5A
:101BE000099828B1D4E901219047206A401C20625D
:101BF0002078C00622D52046FFF7B3FB1EE0002E5A
:101C000004DBB34502DD01A8805D00E03020D4E9AB
:101C100001219047206A401C2062761CAAF1010035
:101C20005FEA000A0AD100F007FAC0680168405C68
:101C3000D4E901219047206A401C2062281EA5F1AA
:101C40000105DCDC07E0D4E9012118F8010B90471D
:101C5000206A401C2062381EA7F10107F3DC2046F1
:101C6000FFF795FB032011B041E600002DE9F04F8E
:101C700004460D46D21D22F0070089B0D0E9009736
:101C80004846394605F084FF0246F80F01D02D235F
:101C900007E02068810701D52B2302E0202101EA1B
:101CA000C0038DF820300BB1012000E00020032A92
:101CB000824601D0072A04DB2946204600F0C0F9FD
:101CC0003FE12078800601D40D2500E0E569C7F3E7
:101CD0000A560D2D49DA00214FEA175B08464FF0EE
:101CE0000000002F00F4400007DA00EB80004FF402
:101CF000400100EBD07001EA60008115012901DD8F
:101D00004FF0FF3100224FEA850CBCF1180F06D3CB
:101D10001346ACF118004FF08052C24003E04FF47C
:101D2000801323FA0CF30CF10C0CBCF1200F04D33C
:101D3000ACF1200C09FA0CF001E007FA0CF00029D4
:101D40004FF0004801DD18B90FE00ED140450CD32B
:101D500019EB02095F4121B9404502D19F4329EAAD
:101D60000209BBEB175F00D0761C2088000502D566
:101D70007B48784402E07A487844193808AA30232E
:101D800002F80A30037C0AF10101002E0AF1020A6E
:101D900053546A4602DC4FF0300101E04FF031014C
:101DA0004FF001088DF8001002D0A6F2FF3603E0D4
:101DB00059EA470100D06B4E002D02DC217809075B
:101DC00004D54FF002082E218DF80110C4460021E1
:101DD0000BE0C7F303433F01C35C491C6D1E02F8CF
:101DE0000830052908F1010801DA002DF1DC002195
:101DF0000CE000EB1973491C1B786D1E082902F8D2
:101E000008304FEA091908F1010801DA002DF0DC69
:101E100021688B0602D516E0A8F10108E04505DD32
:101E200002EB080313F8013C302BF5D0B8F1000F9A
:101E300009DD02EB080313F8013C2E2B03D109073F
:101E400001D4A8F10108002D05DD3E2102F808109B
:101E50006D1E08F10108407C002E02F8080008F110
:101E6000010804DA2D20764202F8080002E02B2057
:101E700002F808000A214FF47A70864208F101083E
:101E80000BDB96FBF0F3303302F8083096FBF0F3EF
:101E900008F1010800FB136601E0642E0CDB6420EE
:101EA00096FBF0F3303302F8083096FBF0F308F1BC
:101EB000010800FB136601E00A2E06DB96FBF1F039
:101EC000303002F8080008F1010896FBF1F001FB40
:101ED0001060303002F80800A16908F1010808EB31
:101EE000050202EB0A00081AA0612078C00602D49D
:101EF0002046FFF736FA216A08AE01EB0A0020629D
:101F000004E0D4E9012116F8010B9047BAF1010A67
:101F1000F7D22078C00602D52046FFF722FA6E4697
:101F200009E016F8010B3E280FD0D4E901219047B3
:101F3000206A401C2062B8F10108F2D22046FFF767
:101F400026FA09B00320BDE8F08F206A28442062F9
:101F500003E0D4E90121302090476D1EEBD3F8E770
:101F6000496B070002FCFFFF10B5436913B1AFF3E3
:101F7000008001E0FFF7E2FA012010BD128800F1B5
:101F8000240182840022C2840122EDE711684FF00F
:101F9000FF32E9E7007B00F08000704770B516461D
:101FA0000C46054600F040F8036893F8010101284B
:101FB00006D0FF2C0FD8185D68B101202C7070BDC1
:101FC000D3F807013246214603F20713034428469B
:101FD000BDE8704018474FF0FF3070BD754600F007
:101FE000EBF8AE4605006946534620F007008546EB
:101FF00018B020B5FEF700FABDE820404FF000060B
:102000004FF000074FF000084FF0000B21F00701E0
:10201000AC46ACE8C009ACE8C009ACE8C009ACE823
:10202000C0098D467047000010B500F005F8001D8E
:1020300010BD00BF65CB000000487047C05D0120A7
:102040002DE9F0411F46044603260168072A01F4E2
:10205000006004DB08B116A505E016A503E008B191
:1020600015A500E015A521F010002060A069C01E94
:10207000A0610FB1401EA0612046FFF772F94FB179
:10208000D4E9012138469047206A401C2062C01CD8
:10209000206206E0206AFAE7D4E9012115F8010B75
:1020A0009047761EF8D22046FFF771F9BDE8F0811F
:1020B0004E414E006E616E00494E4600696E6600EC
:1020C0002DE9F047814616468AB0354878440DC858
:1020D0008DE80D0032487844801C03AC0DC884E8BC
:1020E0000D0041F69B300844372190FBF1F290FB44
:1020F000F1F5A5F1800501FB12041B3C02D56442F9
:10210000012000E00020DFF898A080460027FA4474
:10211000AAF1BE0A0EE0E0070AD03246684607EB95
:10212000470101230AEB810100F0DBFA8DE807008B
:1021300064107F1C002CEED1194F7F44AE3F19E094
:10214000E80715D007EB04100DF1180A90E80E000F
:102150008AE80E00C068F04201D198190890324612
:10216000012306A903A800F0BCFA03AB83E807002B
:102170006D10641C002DE3D14FF001033246694617
:10218000B8F1000F03A802D000F096FA01E000F0C9
:10219000A8FAC9E90001C9F808200AB0BDE8F0872B
:1021A0008068070010B50446AFF300802046BDE804
:1021B0001040FEF7A8B8000000487047A05D01205D
:1021C0005FEA400C08BF91F0000F4FEA8C234FEA02
:1021D000C12243EA51514FEA1C5018BF00F5F040AC
:1021E0004FEA300018BF41F000415FEA6C5C00F03C
:1021F0002980BCF1FF3F08BF40F080407047130CBE
:1022000006BF12044FF0100C4FF0000C130E04BF69
:1022100012020CF1080C130F04BF12010CF1040C94
:10222000930F04BF92000CF1020CD30F04BF5200B5
:102230000CF1010C11464FF00002A0F11F00A0EBC1
:102240000C00704711F0004F08BF704731F000419B
:102250003FF4D5AF0B0C06BF09044FF0100C4FF044
:10226000000C0B0E04BF09020CF1080C0B0F04BF8D
:1022700009010CF1040C8B0F04BF89000CF1020C56
:10228000CB0F04BF49000CF1010CCCF12003A0EBF3
:102290000C0022FA03F302FA0CF241EA030100F106
:1022A0000100704720F07F4C80EA030023F07F4755
:1022B000ACEB070303F57C5300F0004003F1FF0390
:1022C0002DE980494FEA154B09B44FEA144325EA3A
:1022D0000B4E24EA03480FF2042606EB13274908A5
:1022E0003E785FEA320203FB0667C7F5000707FB8B
:1022F00006F64FEA54374FEAD64606F1020607FBC8
:10230000066CCCF1005C4FEA1C472CEA074C07FB3B
:1023100006F40CFB06F504EB15464FEA961634BF9F
:1023200000204FF000404FEAD13706FB07FC4FEA90
:102330001C4C0CFB0BF7D21B03FB0CF761EB0701EA
:102340000CFB0EF7B0EB074072EB17420CFB08F7E3
:1023500034BFA2EB0742B2EB074261EB17414FEAF1
:102360000C444FEA910706FB07FC4FEA1C4C0CFBA0
:102370000BF7B0EBC74072EB573203FB0CF734BFDF
:10238000A2EBC742B2EBC74261EB57310CFB0EF731
:10239000B0EBC70072EB57720CFB08F734BFA2EB2F
:1023A000C702B2EBC70261EB5771039F4FEA81612D
:1023B00041EA921104EBCC044FEAD1374FEA826232
:1023C00006FB07FC42EA90124FEA80604FEA1C4C81
:1023D0000CFB0BF7D21B03FB0CF761EB07010CFBAB
:1023E0000EF7B0EB074072EB17420CFB08F734BF57
:1023F000A2EB0742B2EB074261EB17414FEA8C5563
:102400004FEA910704EB9C2406FB07FC4FEA1C4CA7
:102410000CFB0BF7B0EBC74072EB573203FB0CF72A
:1024200034BFA2EBC742B2EBC74261EB57310CFBA2
:102430000EF7B0EBC70072EB57720CFB08F734BF16
:10244000A2EBC702B2EBC70261EB577115EB4C254B
:102450004FEA816141EA92114FEA82624FEAD13735
:1024600042EA901206FB07FC44F100044FEA806048
:102470004FEA1C4C0CFB0BF7D21B03FB0CF761EB78
:1024800007010CFB0EF7B0EB074072EB17420CFB99
:1024900008F734BFA2EB0742B2EB074261EB1741EA
:1024A00015EB1C154FEA813141EA92414FEA823225
:1024B00042EA90424FEA80304FEA0C7644F1000441
:1024C00048EA03434EEA0B484FF0000EB2EB080C0B
:1024D00071EB030724BF624639464EEB0E0E4FF0F8
:1024E000000B0018524149414BEB0B0BB2EB080CAF
:1024F00071EB03077BF1000B24BF624639464EEBBC
:102500000E0E4FF0000B0018524149414BEB0B0BE4
:10251000B2EB080C71EB03077BF1000B24BF6246A2
:1025200039464EEB0E0E51EA020718BF46F001067F
:1025300016EB0E7655F1000254F1000103D5BDE80B
:102540008901BDE80088BDE88901BDE80048B619E9
:10255000524141EB0101A3F10103704780807F7E6E
:102560007D7C7B7A79787776767574737271717009
:102570006F6E6E6D6C6C6B6A6A69686867666665BB
:102580006464636362616160605F5F5E5E5D5D5C49
:102590005C5B5B5A5A5959585857575656555555BA
:1025A0005454535352525251515050504F4F4F4E1A
:1025B0004E4D4D4D4C4C4C4B4B4B4A4A4A49494968
:1025C00048484847474747464646454545444444AA
:1025D000444343434342424242414141002B9C46D3
:1025E00030D477002BD01CB54FEA370703B44FF037
:1025F00010004FF01001BAF1000F06D0BCF1000F2F
:10260000DCBF40F0080040F008014FF000000FBCB4
:10261000BDE810400BF1010BBBF1010F08BF5FEAF1
:10262000170722BF12F1010211F101014FF0004121
:1026300043F1000300F0004043EA00007047F9D383
:102640005708D0E746EA064613F1400F4FEA164610
:102650001FDD13F1200FDFBF16430A460021203390
:102660005B42BED0C3F1200746EA064602FA07F7EE
:102670004FEA164646EA0706C3F1200722FA03F29C
:1026800001FA07F721FA03F14FF0000342EA0702CB
:10269000A7E746EA020646EA06464FEA164646EA33
:1026A0000106BCBF46EA0646360C4FF000034FF069
:1026B00000024FF0000194E72DE9804C9A469346C2
:1026C00070B491E8380007C831EA400C48BF34EADA
:1026D000430C03D5FFF7E6FDFFF780FFF0BCBDE834
:1026E000008C2DE9804C9A46934670B491E83800EE
:1026F00007C810F0804F08BF13F0804F03D100F0DF
:1027000005F8FFF76BFFF0BCBDE8008C20F07F47B9
:1027100080EA030023F07F4C07EB0C03A3F57C5306
:1027200000F00040A3F1FE0392F0000F00F0B38030
:1027300095F0000F00F077802DE901494FEA114034
:102740004FEA144621EA004800FB06FC24EA06474B
:1027500008FB06F607FB08F800FB07F718EB06482E
:102760004CEB164C4FEA124B18EB07484FEA154654
:102770004CEB174022EA0B4E0BFB06FC25EA064702
:102780000EFB06F607FB0EFE0BFB07F71EEB064ED5
:102790004CEB164C4FF000061EEB074E4CEB174B64
:1027A00018EB0B0840F1000018EB0E0B58EB00087B
:1027B00040F100008F1A4FF000013CBFC943661B77
:1027C00014BFB5EB040C00213CBFC943F61B4FEA14
:1027D00017444EEA8E0E27EA04454FEA1C4704FBD5
:1027E00007622CEA074C05FB07F70CFB05F604FB18
:1027F0000CFC16EB074642EB174216EB0C4642EB7D
:102800001C421BEB060658EB0202414146EA9E06BB
:1028100001D5BDE80189B619524141EB0101A3F18F
:102820000103BDE801894FEA14454FEA114724EA44
:10283000054621EA074C05FB07F406FB07F70CFBEE
:1028400006F105FB0CFC11EB074144EB17444FEA82
:10285000124711EB0C4144EB1C4422EA074C05FBE8
:1028600007F206FB07F70CFB06F605FB0CFC16EB64
:10287000074642EB174216EB0C4642EB1C456A1822
:1028800054F1000148BF7047B619524141EB0101B4
:10289000A3F10103704795F0000F37D04FEA1142C2
:1028A0004FEA144721EA024624EA074C02FB07F1EB
:1028B00006FB07F70CFB06F402FB0CFC14EB0744C9
:1028C00041EB17414FEA154714EB0C4441EB1C4117
:1028D00025EA074C02FB07F506FB07F70CFB06F69B
:1028E00002FB0CFC16EB074645EB174516EB0C46B6
:1028F00045EB1C42121951F1000148BF7047B6194F
:10290000524141EB0101A3F1010370474FEA144525
:102910004FEA114724EA054621EA074C05FB07F177
:1029200006FB07F70CFB06F24FF0000605FB0CFC5C
:1029300012EB074241EB174112EB0C4251EB1C41E9
:1029400048BF7047921841EB0101A3F101037047A2
:102950000029816802D041F0010101E021F001016C
:1029600081607047084B10B5D3F8042307490A402B
:10297000D0E900142143D0E902400443214311432C
:10298000C3F8041310BD000000200140E030FCFF3C
:10299000C06C80B270470246002012680A4200D024
:1029A0000120704730B542680F4B0C791A400B6814
:1029B00042EA04221343436082680C4B4D791A406B
:1029C000D1E9034323438C6844EA4504234313437A
:1029D0008360C26A097D22F47002491EC9B242EACC
:1029E0000151C16230BD0000FFFEFFFCFDF7FFC0DA
:1029F00070B5072409290AD9C568A1F10A0606EBB2
:102A00004606B440A543B3401D43C56007E00569D1
:102A100001EB4106B440A543B3401D4305611F23AC
:102A2000072A09D2446B521E02EB820293409C4358
:102A300091400C43446370BD0D2A09D2046BD21F30
:102A400002EB820293409C4391400C43046370BDAF
:102A5000C46A0D3A02EB820293409C4391400C43BE
:102A6000C46270BD816841F08041816070470000A0
:102A70000E4C40F2B6356426A08980B207F0C4FE41
:102A80000A2001F0D7F96081092001F0BBF9642127
:102A9000A0F6CC30484390FBF5F0E064642800DBFE
:102AA000E664C82009F070FAE6E7000000000020A4
:102AB000F0B58DB00121062002F008FE01210F02C1
:102AC000384602F027FE032601258DF81C600024FD
:102AD00006958DF81F4006A9184801F022F902203A
:102AE00006908DF81C608DF81F4006A9144801F06F
:102AF00018F90121384602F019FE0021384602F08B
:102B000015FE089430040B94CDE9090408A8FFF7DA
:102B100029FF8DF8044000948DF805400294049438
:102B2000084C8DF8145069462046FFF73BFF012101
:102B30002046FFF70DFF0DB0F0BD00000008024079
:102B400000040240002001402DE9F05F04460E46DB
:102B500001E1834DD4F844B0D4F84880D5F8009012
:102B600059464846D5F804A0FDF756FC07464146AD
:102B70005046FDF751FC381A400060644146484613
:102B8000FDF74AFC074659465046FDF745FC3844D8
:102B90004000A064D4F840B0D5F80890D4F84C8038
:102BA00059464846D5F80CA0FDF736FC0746414685
:102BB0005046FDF731FC381A400020644146484633
:102BC000FDF72AFC074659465046FDF725FC3844D8
:102BD0004000E064D4F83CB0D5F81090D4F85080B0
:102BE00059464846D5F814A0FDF716FC074641465D
:102BF0005046FDF711FC381A4000E0634146484654
:102C0000FDF70AFC074659465046FDF705FC3844D7
:102C100040002065D4F838B0D5F81890D4F8548026
:102C200059464846D5F81CA0FDF7F6FB0746414635
:102C30005046FDF7F1FB381A4000A0634146484674
:102C4000FDF7EAFB074659465046FDF7E5FB3844D9
:102C500040006065D4F834B0D5F82090D4F858809E
:102C600059464846D5F824A0FDF7D6FB074641460D
:102C70005046FDF7D1FB381A400060634146484694
:102C8000FDF7CAFB074659465046FDF7C5FB3844D9
:102C90004000A065D4F830B0D5F82890D4F85C8016
:102CA00059464846D5F82CA0FDF7B6FB07464146E5
:102CB0005046FDF7B1FB381A4000206341464846B4
:102CC000FDF7AAFB074659465046FDF7A5FB3844D9
:102CD0004000E065D4F82CB0D5F830A0D4F860807E
:102CE00059465046D5F83490FDF796FB07464146C5
:102CF0004846FDF791FB381A4000E06241465046D5
:102D0000FDF78AFB074659464846FDF785FB3844E0
:102D100040002066D4F828A0D5F83880D4F8649014
:102D2000ED6B51464046FDF777FB0746494628467E
:102D3000FDF772FB381A4000A06249464046FDF795
:102D40006BFB074651462846FDF766FB38444000BA
:102D500060664834761E002E3FF7FBAEBDE8F09F5C
:102D60000884070809480179491CC9B2017164291E
:102D70000BD1002101714279521CD2B242713C2A1E
:102D800003D141718179491C817170470000002095
:102D9000FEE708B1002103E0202070474000491CF5
:102DA0000028FBDA0846704708B1002103E0202024
:102DB00070474000491C0028FBDA08467047002293
:102DC000134601E08354521C8A42FBDB704770B506
:102DD00000254FF4803405E0802002F0A1FD08B109
:102DE00044B101E0641EF7D240F2FF5002F070FDE2
:102DF000284670BD032070BD10B51449044608680C
:102E000010F0450FFBD0042002F08AFD20B1042011
:102E100002F05EFD032010BD012002F081FD20B113
:102E2000012002F055FD012010BD0848243800683B
:102E3000A04201D0102010BD40F2FF5002F048FD2A
:102E400002482038006800F0080010BD342C014012
:102E500010B500244FF480310E4A09E0106810F0DC
:102E6000450F05D009B1400705D5032404200CE027
:102E7000491EF3D2F7E7012002F052FD18B10124F8
:102E8000204602F025FD40F2FF5002F021FD2046D1
:102E900010BD0000342C014010B50A49086810F03C
:102EA000450FFBD0042002F03BFD20B1042002F0CE
:102EB0000FFD032010BD40F2FF5002F009FD00207D
:102EC00010BD0000342C014070B50D461C4906466B
:102ED0000024086810F0450FFBD0042002F020FD0C
:102EE00020B1042002F0F4FC032070BD012002F0A8
:102EF00017FD20B1012002F0EBFC012070BD10484D
:102F000024380068B04212D140F2FF5002F0E0FCD9
:102F10000B482038026812F4604F03D0900404D5A7
:102F2000132070BD100C288007E0500401D510203C
:102F300070BD100401D50F2070BD204670BD00008B
:102F4000342C014010B500244FF480310B4809E0C7
:102F5000026812F0450F05D009B1500705D50324CA
:102F6000042006E0491EF3D2F7E7500603D50024FB
:102F7000402002F0ADFC204610BD0000342C014082
:102F8000044A01238340106809B1184300E09843C4
:102F9000106070470074004070B501219AB0084677
:102FA00002F094FB0121480702F09CFB30201690B0
:102FB00003208DF85C0000248DF85E408DF85F40A2
:102FC0008DF85D0016A9484800F0ABFE0420CDE95D
:102FD0000F040FA90020129400F0D8F80FA91020B8
:102FE00000F0D4F8684600F041FA0121480502F0EB
:102FF0006DFB3E4D01266946286801903C480290D1
:103000004020039040F6C410CDE904044FF48060E2
:1030100006904000079080000890401109904002FF
:103020000A904FF060600090CDE90B460D94314856
:103030000E9400F0EFF9686801902E4D2E48183577
:1030400002906946284600F0E5F911208DF86000ED
:1030500006208DF861008DF862408DF8636018A835
:1030600002F09EFA2549284600F0D0F82449284667
:1030700000F0CCF801221021284600F0B5F9012219
:103080000821284600F0B0F901210020FFF778FF61
:1030900001211020FFF774FF0121002000F034F817
:1030A0000121102000F030F80121102002F01AFB5D
:1030B00013A804F07DF9ADF84C40ADF85440ADF8DC
:1030C0004E404FF4EE600F4C149013A9204604F0CC
:1030D00031F92021204604F01BF90121204604F09B
:1030E00026F81AB070BD0000000002407C000020ED
:1030F0006C27002088600240F43A002000802020E5
:103100000040102000100040044A931483401068CF
:1031100009B1184300E09843106070470074004004
:1031200070B50E46044600F023F80E4D3146284691
:1031300000F09AF931460B4E1836304600F094F9FB
:103140000948B0FBF4F081B2084804F0E9F8012125
:10315000284600F071F83046BDE87040012100F0CB
:103160006BB800008860024000BD010500100040FF
:1031700010B50021044800F05FF803480021BDE8C5
:103180001040183000F058B88860024030B5084C44
:10319000236840F6FE7282409343D1E900252A431A
:1031A000D1E902510D432A4382401A43226030BDC7
:1031B000007400402DE9F041104F114E3946304661
:1031C00000F0E8F80F4C012528B1657025703946EC
:1031D000304600F01BF80C4F3046394600F0DAF864
:1031E000002808D000206070257039463046BDE8C0
:1031F000F04100F00BB8BDE8F08100000040102065
:10320000A06002405800002000802020074A904221
:1032100001D2074801E005481038064A8B0001EA50
:10322000020101D5C160704781607047106402409F
:10323000006002407D0F7D0F0029016802D041F03F
:10324000010101E021F00101016070472DE9F04327
:10325000016821F00101016000210160416081608D
:10326000C1600161212141613C493C4A3D25103941
:10327000904202D18D60BDE8F083384A4FF4746605
:103280001832904201D18E60F5E7344A4FF474173A
:103290003032904201D18F60EDE7304A4FF0746CCC
:1032A0004832904202D1C1F808C0E4E72B4B2C4AC7
:1032B0006033984201D1CA60DDE7284C294B78344D
:1032C000A04201D1CB60D6E7DFF89080264C08F110
:1032D0009008404501D1CC60CDE7DFF880804FF009
:1032E0003D5908F1A808404502D1C1F80C90C2E749
:1032F0001E49DFF878800839404501D10D60BAE7F2
:103300001A4D1835A84201D10E60B4E7174D30357B
:10331000A84201D10F60AEE7144D4835A84202D152
:10332000C1F800C0A7E7114D10496035091FA84238
:1033300001D10A609FE70D4A7832904201D10B60BB
:1033400099E70A4A9032904201D10C6093E7074A0C
:10335000A83290428FD1C1F800908CE710600240F3
:103360003D000020400F002000003D20106402407E
:103370000029016802D041F0200101E021F0200184
:1033800001607047014600200968C90700D001208C
:103390007047000030B5104A0024904201D20F4B14
:1033A00001E00D4B103B0E4A114205D01E2202EAED
:1033B000D12502682A4002E0406900F080028800BE
:1033C00001D5586800E01868064B1840084201D043
:1033D00002B10124204630BD10640240006002406A
:1033E0003C0F3C0F7D0F7D0F0B0607D5436912B1D3
:1033F00043F0800301E023F080034361802908D07B
:10340000002A026801F01E0101D00A4300E08A434D
:103410000260704730B50368124ACC6813400A68EE
:103420002243D1E905452C432243CC6922430C6A4F
:1034300022434C6A22438C6A22434C6B22438C6B9E
:1034400022431A430260426922F00703D1E90B24A8
:1034500022431A4342610A6942604A68826089686D
:10346000C16030BD3F801CF04160704700210160A9
:1034700041608160C160016141618161C16101623E
:1034800041628162C1620163416381637047704739
:103490002DE9FE4F0029DDE90C572FDD4FF0FF3AF3
:1034A000002B1FDBBF4C029354F82260BE4C04EB90
:1034B000460BBE4C54F8326004EBC20200961679FB
:1034C00000227C4214F0070404D015F8012BC4F14B
:1034D0002007BA401B1B36B1012E12D0032E72D02A
:1034E000022E70D05BE10022134605E040F8223046
:1034F00000EB8204921C63608A42F7DB0020BDE887
:10350000FE8F9BF800600BF1020906F00F0E4FF0E2
:10351000000C102B0EDB15F8016BC4F11807BE4030
:10352000164315F8012BC4F11007BA403243103B83
:1035300010343FE0E618002ED4DD002B06DD15F830
:10354000017BC4F1180C07FA0CF73A43082B05DD90
:1035500015F8013BC4F11004A3401A433446771E0A
:103560004FF000463E41002332404FF00B0C0B342D
:1035700020E000BFCEF1200622FA06F739F81770D6
:103580003E0BA41BB240C7F303162EB102F0004855
:10359000520048EA0606641EC7F303272FB102F063
:1035A0000048520048EA0707641E644576DBE0E8FD
:1035B0000267891E002903DD0B2CAADBDAE702E093
:1035C000A4EB0C00E7E04FF0000C5F46CDF804C020
:1035D000102B12DB15F801CBC4F118080CFA08FC0B
:1035E0004CEA020C15F8012BC4F1100802FA08F29B
:1035F000103B42EA0C021034C4E004EB0309B9F1B9
:10360000000F4BDD002B0FDD15F801CBC4F11808BE
:103610000CFA08FC4CEA0202082B05DD15F8013B08
:10362000C4F11004A3401A43A9F101084FF0004C63
:103630004CFA08FC0CEA02024FF00B0C002309F1D3
:103640000B04CDF804C09DE097F800C00CF00F0902
:10365000C9F1200C22FA0CFC07EB4C0CBCF80280E0
:103660005FEA183C0BD002FA0CF2C8F3031EA4EB7D
:103670000C04C8F30329BEF10F0F07D03AE0A4EB06
:10368000090402FA09F207EB48077BE0032E34D164
:10369000B9F1000F03D04FF0010C02E078E04FF0D9
:1036A000000C009F674404EB030C7F1CBC4576DBD9
:1036B0000AE000BF15F801CBC4F118080CFA08FCA9
:1036C000083B4CEA02020834BC42F3DB002B08DA68
:1036D0001C44A4F1010C4FF00047002347FA0CF7FB
:1036E0003A40009FC7F1200722FA07F7BE44009F27
:1036F000E41BBA40BEF1000F05D002F000475200B3
:1037000047EA0E0E641EB9F10F0F29D1032E2AD1FC
:10371000009F04EB030C7F1CBC4540DB0AE000BFAC
:1037200015F801CBC4F118080CFA08FC083B4CEA68
:1037300002020834BC42F3DB002B08DA1C44A4F17B
:10374000010C4FF00047002347FA0CF73A40009F66
:10375000C7F1200722FA07F7B944009FE41BBA40DB
:10376000B9F1000F05D002F00047520047EA0909FD
:10377000641E019FBC4212DB40F804EB5F4640F838
:10378000049B891E002904DD0B2CFFF621AF5BE7AB
:1037900005E00198201A02991844081AAFE650462D
:1037A000ADE60000CC7D0708A85C07084C7E070842
:1037B0002DE9F84F8146DDE90A54002B02DC002098
:1037C000BDE8F88F4848494E50F8220000EB060E3D
:1037D000474850F8220000900022604210F0070491
:1037E00004D015F8012BC4F1200082400020A3EB87
:1037F000040A8346C91E74E0BAF1100F0FDB15F8F6
:10380000013BC4F11806B340134315F8012BC4F172
:103810001006B2401A43AAF1100A10345DE004EB1E
:103820000A03002BCCDDBAF1000F05DD15F8016BA2
:10383000C4F11807BE403243BAF1080F05DD15F890
:10384000016BC4F11004A64032431C465E1E4FF0CB
:10385000004333411A404FF0000A4FF00A0B0A347C
:103860003BE0009BC3F1200322FA03F31EF8036040
:103870003309E41A9A40C6F3C00323B102F00047AB
:103880003B435200641EC6F3800CBCF1000F05D010
:1038900002F00047520047EA0C0C641EC6F34007D2
:1038A0002FB102F00048520048EA0707641E16F0E4
:1038B000010605D002F00048520048EA0606641EE0
:1038C0005C45FFF67DAFC9F8003009F10403001D27
:1038D00043F804CBE3E802769946884201DA0A2CE1
:1038E000BFDA884288DB6BE79C7F07084C7F0708BC
:1038F000A47F07082DE9F04F0D4606465B4903F00B
:10390000030001EB801910398DB051F820000490AC
:103910001F2092464FF00008B0EBA30F1DDD9C1056
:10392000E01C1F281ADA002800DC00200021089182
:10393000D9F8041001410991D9F8081001410A9100
:10394000D9F80C1001410B9180CE27F000400428DB
:1039500006DA08A951F8200077E01F241F20E5E7C8
:10396000102807DA59F82000002C01DA614269E0DA
:1039700020416AE0402809DA3D4901EB80000499C2
:1039800050F8400CFCF748FDE11E50E04FEA404B78
:1039900000200290BBF1006F03DA04204FEA0B1BFA
:1039A0000290BBF1005F04DA02984FEA8B0B801C97
:1039B0000290BBF1804F04DA02984FEA4B0B401C97
:1039C00002902C498B4502DA2948C03001E0284892
:1039D000D430069000685946FCF71EFD0146069853
:1039E000406808445946FCF717FD01460698806870
:1039F00008445946FCF710FD01460698C068084483
:103A00005946FCF709FD014606981B4A006908441F
:103A1000029952F82110FCF7FFFCC0000499FCF752
:103A2000FBFC154A0299203A52F82110611A00292C
:103A30000ADA49426FF0004222FA01F3834201DAC6
:103A4000104602E0884000E0084148EA000188464C
:103A5000002F00DA404201C5AAF101005FEA000A26
:103A60007FF472AF0DB00846BDE8F08F805A0708AA
:103A7000805B07089A79825A885C07082DE9FC5F09
:103A800000254A4C00954FF4806801954027C4F802
:103A90001080C4E902750E464FF0080B1021C4E9EE
:103AA00000B1A946204601F081FF1020FFF7A4F9DC
:103AB000002850D13E48BA464F4600890004206095
:103AC0003720C4E9010AC4E90398204601F06EFFDB
:103AD0003720FFF791F900283DD1411E04F1140071
:103AE000C0E9001B302181600221C0E903170121D8
:103AF000416101F0FDFE3320C4F808A0C4E9007064
:103B0000C4E90378204601F051FF3320FFF774F930
:103B1000040020D1274FDFF89CA04FF4001BE9469A
:103B20004C3F40F22A68386810EA080F0BD158461B
:103B300001F0F6FE0028F6D0DAF8001049F825105A
:103B40006D1C022DEFD3082001F0EAFE28B10820F9
:103B500001F0BEFE0420BDE8FC9F022001F0E0FE63
:103B600020B1022001F0B4FE0220F4E7202001F091
:103B7000D7FE20B1202001F0ABFE0620EBE74FF48A
:103B80000075284601F0CCFE20B1284601F0A0FEC9
:103B90000720E0E740F2FF5001F09AFE009800BADB
:103BA0007060019800BA30602046D4E7984E00203B
:103BB00084000020802C01402DE9F0471E000D46B6
:103BC00004463BD0D107C6F11F074FF001004FF06C
:103BD000000800FA07F0A0F10109C24672D020687F
:103BE000C11740FA07F28A4201D089EA0100B040C9
:103BF0002060FCF714FC40EA080854F8800F4042AB
:103C0000C11740FA07F28A4201D089EA0100B040A8
:103C10002060FCF704FC40EA08082868C11740FA55
:103C200007F280348A4201D089EA0100B04001C520
:103C30000AF1020ABAF1120FD1DB70E0D0073DD0D1
:103C40004FF42070D4F880C107594FF46070D4F855
:103C5000808006594FF49060CCF1000C05594FF468
:103C6000B060C8F1000803594FF4D0607F42025998
:103C70004FF4F060764201594FF408606D4250F8FD
:103C800004904FF42070C4F880C1C4F880800751BC
:103C90004FF460705B4206514FF490605242055100
:103CA0004FF4B060494203514FF4D06002514FF4D9
:103CB000F0600151C9F10000C4F880080020BDE89F
:103CC000F087FFE72068C11740FA07F28A4201D067
:103CD00089EA0100B0402060FCF7A1FB40EA080837
:103CE00054F8800FC11740FA07F28A4201D089EADE
:103CF0000100B0402060FCF792FB40EA0808286809
:103D0000C11740FA07F280348A4201D089EA0100E3
:103D1000B04001C50AF1020ABAF1120FD2DB4046E7
:103D2000CDE7F0B50023012403270D6804FA03F260
:103D30001540954242D1D0F800C05E0007FA06F562
:103D40002CEA050CC0F800C091F804C0D0F800E0DF
:103D50000CFA06FC4CEA0E0CC0F800C091F804C046
:103D6000BCF1010F02D0BCF1020F1FD1D0F808C086
:103D70002CEA050CC0F808C091F805C0D0F808E09E
:103D80000CFA06FC4CEA0E0CC0F808C0D0F804C0CF
:103D90002CEA020CC0F804C0426891F806C00CFA84
:103DA00003FC1FFA8CFC42EA0C024260C268AA4380
:103DB000C260CA79C568B2402A43C2605B1C102B3E
:103DC000B3D3F0BD4B07DB0E9A40C90810B500EB2A
:103DD0008100016A0F249C40A1430162016A1143E2
:103DE000016210BD0246002012690A4200D0012083
:103DF00070470904816170478161704742694A4098
:103E00004261704710B50A4C014607230122204643
:103E1000FEF7EEFD2046FEF725FE02212046FEF7C6
:103E2000BAFD0028F9D02046BDE81040FEF7B0BD2D
:103E30000020014010B50A4C01460723012220460C
:103E4000FEF7D6FD2046FEF70DFE02212046FEF7C6
:103E5000A2FD0028F9D02046BDE81040FEF798BD2D
:103E600000200140FEE700002DE9F04F97B000254B
:103E700098469346894607462C46209E1BE000BF85
:103E8000D8E9053018B17069A04200DD0023D6E9F9
:103E90000301A14200DD0020B1690090CDE901419C
:103EA0000BEB84024946384600F096FA0543641C41
:103EB00009F1240948373068A042E1DC13E000BF73
:103EC000D6E90330A04200DD0023B0690BEB840289
:103ED000CDE900404946384600F0A2F90543641C8C
:103EE00009F1240948377068A042E9DC009441E0F8
:103EF000D6E90320A04200DD002203A9484603F0D2
:103F0000AFFDE00715904FF0000A04F0010057469E
:103F1000029003A80BEB072150F8370001918000B5
:103F20004AEA000A41F82400FCF779FA40EA050859
:103F300003A800EBC70015994068800080EAE17192
:103F40000298084401994AEA000A01EB8401C1F889
:103F50008000FCF764FA40EA0805002049F82700D1
:103F60007F1C092FD5DB09F12409BAF1000F00D01D
:103F70000094641CB068A042BADC0021202C0ADA4C
:103F80005FF000000BEBC012401C42F82410122816
:103F9000F8DB641CF2E70DB1002003E0202003E011
:103FA0006D00401C002DFBDA401EF061009817B038
:103FB000BDE8F08F0D4A0021C2F8A0120C4803683A
:103FC00023F440230360036843F480230360C2F8B2
:103FD000A4120220401EC0B2FCD20120C2F8A002EE
:103FE000401EC0B2FCD2C2F8A0127047008040420E
:103FF000000402401CB50121022001F067FB4FF4D0
:104000004070012400908DF8044000208DF80600D7
:1040100003208DF805008DF8074069460448FFF736
:1040200080FE0448C0F8A042C0F8A4421CBD0000B5
:1040300000040240008040420E4810B50023C0F842
:10404000A0320D490A6822F440220A600A6842F44C
:1040500080220A600121C0F8A4120222521ED2B2AC
:10406000FCD2C0F8A0120121491EC9B2FCD2C0F88E
:10407000A03210BD008040420004024070B50346EB
:1040800015480024016821F44021016001680160A5
:10409000124A2046254600BFC2F8A0520421491EFC
:1040A000C9B2FCD20121C2F8A01261060C0ED2F8EE
:1040B000241209B1641CE4B20421491EC9B2FCD225
:1040C000401CC0B20828E7D31BB1FFF773FF20469E
:1040D00070BDFFF7B1FFFAE70004024000804042E4
:1040E00030B514490A6822F440220A600A6842F492
:1040F00080220A6010490024C1F8A0422246C30968
:10410000C1F8A4324006000E04235B1EDBB2FCD2D1
:104110000123C1F8A03204235B1EDBB2FCD2C1F83C
:10412000A04204235B1EDBB2FCD2521CD2B2082A8E
:10413000E5D330BD00040240008040420E480168D3
:1041400021F440210160016841F4802101600B48A5
:104150000121C0F8A412C0F8A0120221491EC9B260
:10416000FCD20022C0F8A4220121491EC9B2FCD20F
:10417000C0F8A022704700000004024000804042C6
:104180000E48016821F440210160016841F480215A
:1041900001600B480021C0F8A012C0F8A41202214F
:1041A000491EC9B2FCD20121C0F8A012C0F8A41265
:1041B0000846401EC0B2FCD2704700000004024016
:1041C00000804042144810B50268002122F44022C9
:1041D00002600268026011480122C0F8A422022392
:1041E0005B1EDBB2FCD2C0F8A0220122521ED2B26A
:1041F000FCD207E0491CC9B2FA2903D9FFF7C0FF76
:10420000012010BDD0F82422002AF3D10021C0F8EB
:10421000A012084610BD0000000402400080404289
:104220002DE9FF4FA7B0054635981E460C464FF0C6
:10423000000B072816DAC0F1070B002055F82010F4
:1042400041FA0BF145F8201005EB80014A6842FA6B
:104250000BF24A60216841FA0BF102C4801C12285B
:10426000ECDB243C6946284605F068FA281D06A9BF
:1042700005F064FA05F108000CA905F05FFA324672
:1042800012A9204603F0ECFB524800273D4624903B
:104290000DF1480A5AF825004FEA80084046FCF71D
:1042A000BEF840EA070929980AEB850A00EBC51613
:1042B000C6F80080DAF80C0080008046FCF7AFF802
:1042C00040EA0907684600EB8500C6F88081259022
:1042D000C168249850F82500FCF79EF80146DAF8EA
:1042E000180001EB80008146FCF799F840EA0708C6
:1042F000C6F800932498C5F1050100EB85095DF827
:104300002110D9F80C00FCF787F80146DAF82400F0
:1043100001EB80000746FCF782F8C5F10201C6F800
:10432000807440EA08085DF82110D9F81800FCF7FD
:1043300073F807462598416A249850F82500FCF741
:104340006BF83918DAF8300001EB80073846FCF7D3
:1043500066F840EA08012591C6F800765DF8251058
:10436000D9F82400FCF758F8C5F10B0107465DF8B1
:104370002110D9F80C00FCF74FF83918DAF83C0096
:1043800001EB80008046FCF74AF825996D1C40EA55
:104390000107C6F88087032DFFF67AAF062168462D
:1043A00050F82120491C921004C40929F8DB0C2183
:1043B00050F82120491C921004C41229F8DBA4F102
:1043C00024015B46349A2998FFF7F6FB2BB038435B
:1043D000BDE8F08FA08107082DE9F04F0C46AFB083
:1043E0000146924600203A9A9B464431034605AD69
:1043F000072A1BDAC2F1070908220E6846FA09F6F5
:10440000F31A0E1F181A366846FA09F6F31A05EB66
:104410008206706245F8223054F8226046FA09F6A6
:1044200044F822600839521EE7D510E04FF0000929
:1044300008220E68F31A0E1F181A36680839F31A84
:1044400005EB8206706245F82230521EF1D50E98B7
:1044500040100E90059840100590284605F0CAF8C7
:104460000EA805F0C7F83898504F0DAE4FF0000871
:1044700050EA0B0056D018A92046389A03F0F0FAFB
:104480004B490BEBCB0001EB00100025CDF80400ED
:10449000716A57F8040956F804B9FBF7BDFF4FEAF3
:1044A000AB010A1A0844049201C4019850F825107F
:1044B0000498FBF7B1FF18A9C5F1110B51F82510AD
:1044C0000844800001992D90049851F82B10FBF7B7
:1044D000A3FF18AA014652F82B000844810000915E
:1044E0000AEBC5112D9808600AEBCB10009901600A
:1044F0002D98FBF794FF40EA08080098FBF78FFF20
:104500006D1C40EA0808092DC2DB00BFA4F124019C
:104510004B465046399AFFF74FFB2FB040EA080050
:10452000BDE8F08FDFF884B05FF000050BF1040BFD
:10453000726A57F8040956F8041903911146FBF7FB
:104540006BFF236803995A4289102E92421A08443D
:10455000049201C49818404200905BF8041BFBF7DA
:104560005BFF049A02EB80002D905BF8041B00981F
:10457000FBF752FF2E9A0AEBC51102EB8000009068
:104580002D980860C5F111020AEBC211009808606D
:104590002D98FBF744FF40EA08080098FBF73FFF1F
:1045A0006D1C40EA0808092DC2DBAFE7CC7F070885
:1045B000808007080027164C00F08AF8054603287B
:1045C0000BD1002600F084F82070032802D1607817
:1045D000401C6070761C0A2EF4DB60786770092836
:1045E00014D2012D06D0022D06D0032D0CD0042D9F
:1045F00006D10BE0012100E00221606C07F08CFF86
:10460000642007F0C1FCD7E70421F6E70821F4E7AE
:104610000000002038B504461E48002200920089A0
:104620001D49000408600D2048604020C1E90202D5
:1046300000010861084601F0B9F9184908680090BE
:1046400010F0450FFAD0012001F06AF920B10120E5
:1046500001F03EF9012038BD042001F061F920B1DC
:10466000042001F035F9032038BD0C4824380068D7
:104670000D2801D0102038BD40F2FF5001F028F97C
:104680000648203800680090C0F3432020700020C6
:1046900038BD000084000020984E0020342C0140DA
:1046A0001CB50121084601F011F8492000900020B6
:1046B0008DF8040003208DF8050001208DF8070017
:1046C00069460248FFF72DFB1CBD000000000240B8
:1046D00010B5214C40212046FFF784FB50B1012149
:1046E0002046FFF77FFBA8B108212046FFF77AFBA1
:1046F00000B32DE0502003F06BFA1E2007F044FCBD
:10470000002003F065FA40212046FFF76BFBF8B963
:10471000012010BD502003F05BFA1E2007F034FC8E
:10472000002003F055FA01212046FFF75BFB78B922
:10473000022010BD502003F04BFA282007F024FC83
:10474000002003F045FA08212046FFF74BFB08B193
:10475000002010BD032010BD000002402DE9F041F3
:1047600004461D4616460F462A2000F0FFFA204652
:1047700000F0F0FA304600F0EDFA2B2000F0F6FAE7
:10478000384600F0E7FA284600F0E4FABDE8F041C8
:104790002C2000F0EBBA10B514460B460246FFF78A
:1047A000DDFF2046BDE8104000F0D4BA2DE9F04707
:1047B00080461F46581E83B21646501E82B20C46D3
:1047C0004046DDF82090FFF7C9FF0AE0454604E0C7
:1047D000484600F0BFFA6D1CADB2B542F8D3641C78
:1047E000A4B2BC42F2D3BDE8F08700001CB50121A1
:1047F000042000F06BFF1E20009001208DF80400C3
:1048000000208DF806000220054C8DF80500694651
:104810002046FFF786FA1E212046FFF7EDFA1CBD61
:104820000008024010B5FFF7E1FF02F06BFA744C8C
:1048300002212046FFF7E0FA0A2003F0BFFB022125
:104840002046FFF7D6FA0A2003F0B8FB02212046E3
:10485000FFF7D2FA782003F0B1FB10212046FFF7D2
:10486000CBFA112000F082FA782003F0A7FB362063
:1048700000F07CFA002000F08BFA3A2000F076FA83
:10488000052000F085FAB22000F070FA052000F053
:104890007FFA052000F07CFA002000F079FA33203E
:1048A00000F076FA332000F073FAB72000F05EFAD9
:1048B000352000F06DFABB2000F058FA212000F0FE
:1048C00067FAC02000F052FA2C2000F061FAC220F2
:1048D00000F04CFA012000F05BFAC32000F046FA29
:1048E0000B2000F055FAC42000F040FA202000F020
:1048F0004FFAC62000F03AFA0F2000F049FAD02013
:1049000000F034FAA72000F043FAA12000F040FAAA
:10491000D02000F02BFAA42000F03AFAA12000F0F9
:1049200037FAD62000F022FAA12000F031FAE02078
:1049300000F01CFAD02000F02BFA042000F028FA36
:10494000082000F025FA0A2000F022FA092000F0E1
:104950001FFA052000F01CFA2D2000F019FA432060
:1049600000F016FA492000F013FA092000F010FABE
:10497000162000F00DFA152000F00AFA262000F0AB
:1049800007FA2B2000F004FAE12000F0EFF9D02024
:1049900000F0FEF9032000F0FBF9092000F0F8F91F
:1049A0000A2000F0F5F90A2000F0F2F9062000F0E4
:1049B000EFF92E2000F0ECF9442000F0E9F9402056
:1049C00000F0E6F93A2000F0E3F9152000F0E0F9F4
:1049D000152000F0DDF9262000F0DAF92A2000F099
:1049E000D7F9212000F0C2F9292000F0BFF92020DA
:1049F00000F0BCF9BDE810400A2003F0DFBA000067
:104A0000000802402DE9FF4F81B00446DDF83C90DC
:104A100000904FEA59074FF00008780700D00120B6
:104A200000EBD70000FB09FB203AD0B203900298BC
:104A300002994844401E83B2E019401E82B22046CB
:104A4000FFF78CFE002553E0B9F10C0F2AD0B9F125
:104A5000100F2ED0B9F1180F2ED0B9F1200F49D177
:104A60002749039801EB8010002610F805A0109844
:104A700000284FF0010000FA06F000EA0A0022D0F8
:104A800020B12046049A0299FFF785FE641C009825
:104A9000A4B2201AB84225D10298009C401C80B2D2
:104AA000029023E00398174900EB400001EB8000DF
:104AB000DAE71549039803E00398144900EB400036
:104AC00001EB0010D0E708B1049800E00E9800F068
:104AD00041F908F10100C0B2B0FBF7F1804607FBD5
:104AE000118050B1761CF6B2082EC0D36D1CADB249
:104AF0005D45A9D305B0BDE8F08F4FF00008F5E79C
:104B00008873040854570408C85B0408B861040893
:104B10002DE9FE4F0646DDE90D571078DDF83080AF
:104B2000994614468A46002811D0182D0FD1CDF889
:104B30000080CDE901574B4622465146304600F0F1
:104B400009F8701986B214F8020F0028EFD1BDE8F9
:104B5000FE8F00002DE9FF4F83B08046119D00902D
:104B60004FF00009680700D0012000EBD50000FBE2
:104B700005FB62200026029006EB860000EB461142
:104B80003148059A10F811301278934251D100EB58
:104B900041000190417805984078814249D10498BC
:104BA00004992844401E83B208EB0500401E82B2DF
:104BB0004046FFF7D3FD002739E00198002400EBC1
:104BC000070A12989AF8021000284FF0010000FA24
:104BD00004F001EA000115D021B14046069A04997B
:104BE000FFF7D9FD08F101001FFA80F80098A8EB43
:104BF0000000A84215D10498DDF80080401C80B266
:104C0000049012E009B1069800E0109800F0A2F8B4
:104C100009F10100C0B2B0FBF5F1814605FB11902E
:104C200078B1641CE4B2082CCBD37F1CFFB25F4583
:104C3000C3D3761C0298B6B286429DD307B0BDE8B6
:104C4000F08F4FF00009F0E7488B04082DE9FF4F83
:104C500083B00026DDE911B81D4682464FEA5807A9
:104C60003446B1462CE0281B401EC1B20A2005F094
:104C7000DEFC0599B1FBF0F00A21B0FBF1F201FB7B
:104C8000120026B9691E8C4201DA58B10126303073
:104C9000C2B204FB07A0CDF800B0CDE9018980B213
:104CA000109B08E0CDF800B004FB07A0CDE9018916
:104CB000109B80B220220499FFF7A4FE641CE4B28A
:104CC000AC42D0D307B0BDE8F08F2DE9F0471F46C6
:104CD0009046CA19521E93B200EB0802521E0025DC
:104CE00092B2DDF82090FFF739FD002611E0002494
:104CF0000BE019F8150000F037F809EB4500407893
:104D000000F032F8641CA4B26D1CBC42F1D3761CD6
:104D1000B6B24645EBD3BDE8F0872DE9FE4F994684
:104D2000DDE90D6714468A460546DDF830800CE063
:104D3000CDF800804B4651462846CDE90167FFF784
:104D400061FE05EB560085B2641C2278002AEFD183
:104D5000BDE8FE8F10B50446000A00F019F8E0B275
:104D6000BDE8104000F014B800F012B870B5074C60
:104D7000054604212046FFF73CF8284600F008F8D5
:104D80002046BDE870400421FFF736B80008024015
:104D900070B5074C054608212046FFF72AF828463B
:104DA00002F00EF82046BDE870400821FFF724B855
:104DB0000008024008B507481E2300901A46372114
:104DC0000A20FFF782FF00BF04F054FE0A2007F01C
:104DD000DBF8F9E7CA9701081CB50121022000F0B1
:104DE00075FC03208DF8050001218DF804100221C7
:104DF0008DF807100021064C8DF8061000906946CA
:104E00002046FEF78EFF03212046FEF7F5FF1CBD6E
:104E100000040240294C4FF4967628490022891C50
:104E2000E06B07F063FEA078012827D0022827D086
:104E300003282CD00428F0D1002520490022891C09
:104E4000E06B07F053FEA8B204F0B8FD0A2007F0AB
:104E50009BF86D1C642DF0DB642518490022891C29
:104E6000E06B07F043FEA8B204F0A8FD0A2007F0AB
:104E70008BF86D1E002DF0DCA078DBE7002000E051
:104E8000642004F09BFD304607F07EF8C5E70B492F
:104E90000022891CE06B07F029FE642004F08EFDDF
:104EA000304607F071F8002004F088FD304607F026
:104EB0006BF8A0780328EAD0AFE7000000000020DC
:104EC00030B500280ED00022144602E021F812402E
:104ED000521C00F2C47328CB6B43D0F8BC576B4311
:104EE0009342F3DC30BD0000F8B506464C4C002080
:104EF0000D460A460090494B3146A06800F0C0F8C4
:104F0000010023D011F1020F1CD0B1F1FF3F09D0F5
:104F100044A0FBF7CBFE2868002801DD401E286076
:104F20000020F8BD44A0FBF7C1FE3D4B4FF480527A
:104F30000C334849484803F06EFDA0704548306086
:104F4000E068ECE745A0FBF7B1FEE9E73349A0686C
:104F50001C3900F031FA314830491C380769002FFC
:104F600010DD406801280DD17E1E0AD431F81600EC
:104F700021F8260031F8160001EB8602761E5080DB
:104F8000F4D57F00264D0020103564223B4B07EB03
:104F9000D77621E06778012F23D031F8207095F87B
:104FA00000C017FB0CF797FBF2FE00EB660703EB64
:104FB00047070EF5004EA7F800E001EB800EBEF8A3
:104FC00002E01EFB0CFC9CFBF2FC41F2883E0CF55F
:104FD000004C27F80EC0401CB0EB660FDADB012056
:104FE000F8BD31F820C02F781CFB07FC9CFBF2FCBD
:104FF0000CF5004C23F810C001EB800CBCF802C08B
:105000001CFB07F797FBF2F703EB400C0CF5805CF9
:1050100007F50047ACF88873DDE700007C1200203C
:1050200058000020554E4B4E4F574E204552524F80
:10503000523A25640D0A00004552525F4D50335FCD
:10504000494E444154415F554E444552464C4F579A
:105050000D0A0000600200207C2400204552525FAF
:105060004D50335F4D41494E444154415F554E448C
:105070004552464C4F570D0A000000006C27002097
:105080002DE9FF4F83B017460E4604000BD0316860
:1050900009F0ECFA5FEA000808D500BF6FF00500E0
:1050A00007B0BDE8F08F6FF00400F9E7306800EB5F
:1050B00008012046316009F04DFC002806DA204640
:1050C0000699FFF7FDFE6FF00600E9E7316808EB8F
:1050D000000B014431603A68A2EB0B013960D4F84F
:1050E000B81719B1D4F8B007F0BB59E0D4F8B0172D
:1050F000D1BB0121C4F8B0173568D7F800A0A5EBE3
:105100000801A946A1EB00085146284600F039F9EC
:105110000544002802DA4FF0FF301AE02A7898F8A8
:1051200000108A4221D16A7898F801108A421CD175
:10513000A97898F8022001F0FC0102F0FC029142EB
:1051400013D198F802004008C00700D06D1EA5EBEF
:105150000900C4F8B40700280DDA20460699FFF7C5
:10516000AFFE6FF002009BE712E0AAEB0000A0F197
:10517000030AED1CC8E704F2C471584406C9514340
:10518000D4F8C0274243D00090FBF1F0C4F8B80730
:10519000204608F0A0F8D4F8B4170844C4F8CC07A7
:1051A0001098B8B13868C4F8CC07D4F8D81709B942
:1051B000002804DC20460699FFF782FE6EE7C4F85B
:1051C000DC073568284430603868D4F8CC17401ABA
:1051D000386030E0D4F8CC173868814206DD2046CC
:1051E0000699FFF76DFE4FF0FF3059E7D4F8D82746
:1051F000D4F8DC07904226DB2044811A04F11C001D
:1052000005461C31FBF75EFFD4F8D807D4F8CC274D
:105210003168284404F2CC74FBF70FFFE168206882
:105220000144216131680844306038682168A4F283
:10523000CC74401A386000200290D4F8DC070026B5
:105240004FEAC00997E004F11C02104433680A4693
:105250001946FBF7F2FED4F8DC17D4F8CC0701446A
:10526000C4F8DC173168084430603868D4F8CC17CB
:10527000401A386020460699FFF722FE6FF00100C1
:105280000EE700273BE04B4602AA29462046DDF800
:105290000880CDE9006709F0E1FA04EBC603029A41
:1052A00003EB8703C8EBC0011144D3F8E037054492
:1052B0005B1AA9EB0108002801DB984506DA2046B5
:1052C0000699FFF7FDFD6FF00700E9E6914602AA97
:1052D00029462046CDE9006708F008F8002806DADC
:1052E00020460699FFF7ECFD6FF00800D8E605446C
:1052F0000299C9EBC0000144A8EB01097F1CD4F856
:10530000BC07B842BFDC3146204608F0BDF9002892
:1053100006DA20460699FFF7D3FD6FF00900BFE6D5
:1053200000270EE03A463146204608F01FFE0028CE
:1053300006DA20460699FFF7C3FD6FF00A00AFE6D4
:105340007F1CD4F8BC07B842ECDCD4F8BC17D4F806
:10535000C80748430699704301EB4001204609F015
:1053600007F9002806DA20460699FFF7A9FD6FF035
:105370000B0095E6761CD4F8C407B04281DC00200F
:105380008EE6024610B500200723491E0AE0145C91
:10539000E44314F0FF0F04D114186478B3EB541FE6
:1053A00004D0401C8842F2DB4FF0FF3010BD0028D3
:1053B00001D008F0B8BD704718B1D0F8D027032A43
:1053C00007D00020086048608860C86008614861B4
:1053D00020E0D0F8B8270A60D0F8BC274A60D0F89F
:1053E000C0278A601022CA6090F8D4270A4B02EBCB
:1053F000420203EB4202D0F8D03702EB4302D0F86E
:10540000BC3732F9022C5A430A61D0F8D0274A61DE
:1054100090F8D40788617047D255070807F008BF95
:1054200010B5FEF7E7FD80216B2000F08AF86420BC
:1054300002F0C4FD00216B2000F083F8032000F08F
:105440004CF8002000F044F8322000F063F800210E
:10545000382000F076F800216A2000F072F8002170
:10546000232000F06EF88021372000F06AF87520C4
:1054700000F011F8682801D0012010BD01216B2037
:1054800000F05FF800216C2000F05BF8322000F0A3
:1054900041F8002010BD10B50446FEF74FFED020A5
:1054A000FEF71EFEFEF78EFE2046FEF719FEFEF703
:1054B00089FEFEF743FED120FEF712FEFEF782FEC4
:1054C0000020FEF7DBFD0446FEF75AFE204610BD25
:1054D000C006010E1C2000F034B8C006010E1B20CF
:1054E00000F02FB8BC2801D3012110E0622801D3BD
:1054F00002210CE02A2801D3032108E0142801D35B
:10550000042104E00A2801D3052100E006211A2025
:1055100000F017B810B504464FF47A70844201D9F0
:10552000044602E0042C00D20424B0FBF4F0401E38
:10553000C1B2192000F005F86008BDE81040FFF77F
:10554000D1BF70B50C460546FEF7F8FDD020FEF73A
:10555000C7FDFEF737FE50B92846FEF7C1FDFEF73E
:1055600031FE2046FEF7BCFDFEF72CFE18B1FEF71B
:1055700007FE012070BDFEF703FE002070BD000095
:105580004FF47A740349044804F0ECFB204606F01B
:10559000FBFCF7E703000020B0000020FEE77047A7
:1055A00030B50F22C47801780123FCB1144C246873
:1055B00001F1E02104F4E064C4F5E064C4F30724DD
:1055C000C4F10405E2404478AC4085781540254399
:1055D0002A0181F80024007800F01F018B40400967
:1055E000800000F1E020C0F8003130BD01F01F0064
:1055F00083404809800000F1E020C0F8803130BDD0
:105600000CED00E0024908430249086070470000C1
:105610000000FA050CED00E070B501218AB00846E3
:1056200000F054F80121084600F074F8254E0122DC
:105630000B213046FEF7C6FBF014089002208DF8CF
:10564000240000248DF8264001258DF827500320E2
:105650008DF8250008A93046FEF763FB632006900D
:10566000ADF8164040F28F60174EADF81C40ADF813
:1056700014008DF81E4005A9304601F05BFE602045
:10568000ADF800002802ADF81000ADF80250ADF8FA
:105690000C40ADF8044069463046029401F0FEFD2E
:1056A0000821304601F02AFE0121304601F032FD8A
:1056B0000121304601F03BFD0121304601F041FD62
:1056C0000AB070BD0000024000000140044A0029F9
:1056D000116801D0014300E0814311607047000070
:1056E00030380240044A0029116801D0014300E02B
:1056F000814311607047000040380240044A00298D
:10570000116801D0014300E081431160704700003F
:1057100020380240044A0029116801D0014300E00A
:10572000814311607047000044380240044A002958
:10573000116801D0014300E081431160704700000F
:105740002438024070B5204A1168204C11F00C0139
:1057500004D06610042903D0082903D004601BE09C
:10576000066019E01849091F0B68C3F380550B68E0
:1057700003F03F0315B1B6FBF3F301E0B4FBF3F321
:105780000C680968C4F388146343C1F30141491CE0
:105790004900B3FBF1F1016011680F2303EA111115
:1057A0000B4B5C5C0168E14041601468072505EA29
:1057B00094241C5D21FA04F48460126805EA5232D4
:1057C0009A5CD140C16070BD083802400024F400EA
:1057D000AE01002030B5C1680B4604291BDB01680F
:1057E0004A1C02600978541C0906C0E9004112787D
:1057F00041EA0242611CC0E90012247842EA042214
:105800004C1CC0E9004209781143416020211B1F54
:10581000C0E9021330BD0024446007E00268551C53
:105820000560127845682A4312024260491EF5D28B
:10583000C3F103024168D20091404160D900C0E940
:10584000021430BD2DE9FC41002500952E4601953E
:1058500000B102261B480068800102D50E20BDE879
:10586000FC81194C6946208980B2FEF707F90028AF
:10587000F5D10198400322D52089144C00044FF043
:10588000400820603720C4E901084FF48067C4E96C
:105890000357204600F08AF83720FDF7ADFA0028BC
:1058A000DDD10620C4F80880C4E90060C4E90357CC
:1058B000204600F07BF80620FDF79EFACFE7252072
:1058C000CDE70000142C014084000020984E0020F9
:1058D0000149086070470000382C0140034A1168F4
:1058E00021F0FF010143116070470000042C0140CA
:1058F00010B50A4A01681160121D41681160121D3D
:10590000116821F0F703D0E902142143D0E90440E3
:10591000044321431943116010BD0000242C0140B1
:10592000034A0146002012680A4200D00120704755
:10593000342C01400248006800F00300704700006A
:10594000002C014000F0A0BB30B5094B1A6847F6A7
:10595000FF618A43017D8468C568214344682C4304
:10596000214304680069214301431143196030BD9C
:10597000042C01400B4900200860091D0860091D26
:105980000860091D0860074924310860091D086086
:10599000091D0860034A044938321160111D08606E
:1059A00070470000002C0140FF07C00010B5084AF6
:1059B00001681160121D1168CB0AD0E9011421435E
:1059C000D0E903400443DB0221431943116010BDB9
:1059D000082C01400149086070470000002C01407C
:1059E00070B51B4C90B0154606462046FDF7CAFC24
:1059F0000028FAD12046FDF729FC4FF00060009006
:105A00000021CDE903511348CDE901060015CDE988
:105A10000510800007908000CDE908014FF4403068
:105A20000A9004200B9003200C904FF400000D907E
:105A300080100E9069462046FDF7ECFC20212046A0
:105A4000FDF796FC01212046FDF7F6FB10B070BD76
:105A500058640240802C014010B5104904460020D3
:105A60000978032917D019B1012901D0022911D1D0
:105A7000B4F5805F0FD0E0B2FFF7E4FE002809D153
:105A800007490A6822F4C0520A600A6822430A6081
:105A90000A680A6010BD272010BD000084000020A5
:105AA000042C01402DE9F0478049DFF804A24FF0B3
:105AB00001090E7880F856600989A0F85410DAF8C8
:105AC000001053460A0E94090470C2F38304447014
:105AD00002F0030282700A0CC2700A0A027141715C
